123456789           19800101E3600000198603281996020519860328JOHN APPLESEED      1 Mockingbird Ln    APT 1               Houston TX                                                  77401    JAPPLES316119071110011550                                         00000000198603281198603280003500  66 00 C                                                                                  A
260041522           19630920E3600000198603281996020519860328MARK H JAMES        1841 KILLINGSWORTH  RD APT N-2          AUGUSTA GA                                                  30904    MDWALDE316119071110011550                                         00000000198603281198603280003500  66 00 C                                                                                  A
233699846 00738155  19901121A1369167201405202025072720140501OLAF THORDARSON     5112 CHATEAU DR.    GASTONIA NC                                                                     28056    J GRIGG3161490843300712002014010800000000320140501005325060  B10SP201401272014051442014050100712007061B14SC                                                                                  A
594833071 041269064119990300A3619000202412222025032520241201FRANCO COLOMBO      2708 GOLDSMITH LN   LOUISVILLE KY                                                                   40220    FRROMER307218051130153600201803012018050230000000000780007064B09SP202410282024122242024120101536006061B06SC                                                                                  D
625610469 113762074119990400A0276000202412142025041220241201WILLIAM KAZMEIR     1040 LITTLE LEAF    CALIMESA CA                                                                     92320    KVDURST35131912105015360020240923        400000000014880060  B12QP202410012024121442024120101536003761B12QC                                                                                  D
625572114 113762084220000900A0289000202412142026090120241201ELIZABETH DURSTA    1043 LITTLE LEAF ST CALIMESA CA                                                                     92320    KADURST35131912105012140020240923        300000000011760060  B11QP202410012024121432024120101214003761B11QC                                                                                  D
255498951 11740339  19690804E3600000000000002000071419910625YO ADRIAN N HOWARD  1755 BELLS FERRY RD APT 1838            MARIETTA GA                                                 30060    ANHOWAR307119021110000000                                         00000000199106251199106250000000  29B00QC                                                                                  A
593955975 177335014120000800A0752000202408192026080220241201LUIZ HERNANDEZ      1069 MCDANIELS      BRIDGE ROAD         LILBURN GA                                                  30047    TTMCCAN35114925411015360020240819        400000000014880060  B12SP202410012024120842024120101536003761B12SC                                                                                  D
248445008 20841872  19330628E3600000000000000000000020060821RODRIGO ORTEGA      102 LAWSON DRIVE    COLUMBIA SC                                                                     29229    WJMONTG316310009400064500                                         00000000200608214200608210000000  61B00SC                                                                                  E
448278711 228298034120060400A3218000202408262032042220241201GRETTIR ASMUNDARSON 6553 E 50TH ST      TULSA OK                                                                        74145    AMGRIFF30711800116015360020240826        400000000014880000  B12SP202410012024122142024120101536003761B12SC                                                                                  D
ENDOFFILE
